{
  "_format": "hh-sol-artifact-1",
  "contractName": "CrowdFund",
  "sourceName": "contracts/crowdfund.sol",
  "abi": [
    {
      "inputs": [
        {
          "internalType": "address",
          "name": "_token",
          "type": "address"
        }
      ],
      "stateMutability": "nonpayable",
      "type": "constructor"
    },
    {
      "anonymous": false,
      "inputs": [
        {
          "indexed": false,
          "internalType": "uint256",
          "name": "id",
          "type": "uint256"
        }
      ],
      "name": "Cancel",
      "type": "event"
    },
    {
      "anonymous": false,
      "inputs": [
        {
          "indexed": false,
          "internalType": "uint256",
          "name": "id",
          "type": "uint256"
        }
      ],
      "name": "Claim",
      "type": "event"
    },
    {
      "anonymous": false,
      "inputs": [
        {
          "indexed": false,
          "internalType": "uint256",
          "name": "id",
          "type": "uint256"
        },
        {
          "indexed": true,
          "internalType": "address",
          "name": "creator",
          "type": "address"
        },
        {
          "indexed": false,
          "internalType": "uint256",
          "name": "goal",
          "type": "uint256"
        },
        {
          "indexed": false,
          "internalType": "uint32",
          "name": "startAt",
          "type": "uint32"
        },
        {
          "indexed": false,
          "internalType": "uint32",
          "name": "endAt",
          "type": "uint32"
        }
      ],
      "name": "Launch",
      "type": "event"
    },
    {
      "anonymous": false,
      "inputs": [
        {
          "indexed": true,
          "internalType": "uint256",
          "name": "id",
          "type": "uint256"
        },
        {
          "indexed": true,
          "internalType": "address",
          "name": "caller",
          "type": "address"
        },
        {
          "indexed": false,
          "internalType": "uint256",
          "name": "amount",
          "type": "uint256"
        }
      ],
      "name": "Pledge",
      "type": "event"
    },
    {
      "anonymous": false,
      "inputs": [
        {
          "indexed": false,
          "internalType": "uint256",
          "name": "id",
          "type": "uint256"
        },
        {
          "indexed": true,
          "internalType": "address",
          "name": "caller",
          "type": "address"
        },
        {
          "indexed": false,
          "internalType": "uint256",
          "name": "amount",
          "type": "uint256"
        }
      ],
      "name": "Refund",
      "type": "event"
    },
    {
      "anonymous": false,
      "inputs": [
        {
          "indexed": true,
          "internalType": "uint256",
          "name": "id",
          "type": "uint256"
        },
        {
          "indexed": true,
          "internalType": "address",
          "name": "caller",
          "type": "address"
        },
        {
          "indexed": false,
          "internalType": "uint256",
          "name": "amount",
          "type": "uint256"
        }
      ],
      "name": "Unpledge",
      "type": "event"
    },
    {
      "inputs": [
        {
          "internalType": "uint256",
          "name": "",
          "type": "uint256"
        }
      ],
      "name": "campaigns",
      "outputs": [
        {
          "internalType": "address",
          "name": "creator",
          "type": "address"
        },
        {
          "internalType": "uint256",
          "name": "goal",
          "type": "uint256"
        },
        {
          "internalType": "uint256",
          "name": "pledged",
          "type": "uint256"
        },
        {
          "internalType": "uint32",
          "name": "startAt",
          "type": "uint32"
        },
        {
          "internalType": "uint32",
          "name": "endAt",
          "type": "uint32"
        },
        {
          "internalType": "bool",
          "name": "claimed",
          "type": "bool"
        }
      ],
      "stateMutability": "view",
      "type": "function"
    },
    {
      "inputs": [
        {
          "internalType": "uint256",
          "name": "_id",
          "type": "uint256"
        }
      ],
      "name": "cancel",
      "outputs": [],
      "stateMutability": "nonpayable",
      "type": "function"
    },
    {
      "inputs": [
        {
          "internalType": "uint256",
          "name": "_id",
          "type": "uint256"
        }
      ],
      "name": "claim",
      "outputs": [],
      "stateMutability": "nonpayable",
      "type": "function"
    },
    {
      "inputs": [],
      "name": "count",
      "outputs": [
        {
          "internalType": "uint256",
          "name": "",
          "type": "uint256"
        }
      ],
      "stateMutability": "view",
      "type": "function"
    },
    {
      "inputs": [
        {
          "internalType": "uint256",
          "name": "_id",
          "type": "uint256"
        }
      ],
      "name": "getBalance",
      "outputs": [
        {
          "internalType": "uint256",
          "name": "",
          "type": "uint256"
        }
      ],
      "stateMutability": "view",
      "type": "function"
    },
    {
      "inputs": [
        {
          "internalType": "uint256",
          "name": "_goal",
          "type": "uint256"
        },
        {
          "internalType": "uint32",
          "name": "_startAt",
          "type": "uint32"
        },
        {
          "internalType": "uint32",
          "name": "_endAt",
          "type": "uint32"
        }
      ],
      "name": "launch",
      "outputs": [],
      "stateMutability": "nonpayable",
      "type": "function"
    },
    {
      "inputs": [
        {
          "internalType": "uint256",
          "name": "_id",
          "type": "uint256"
        },
        {
          "internalType": "uint256",
          "name": "_amount",
          "type": "uint256"
        }
      ],
      "name": "pledge",
      "outputs": [],
      "stateMutability": "nonpayable",
      "type": "function"
    },
    {
      "inputs": [
        {
          "internalType": "uint256",
          "name": "",
          "type": "uint256"
        },
        {
          "internalType": "address",
          "name": "",
          "type": "address"
        }
      ],
      "name": "pledgedAmount",
      "outputs": [
        {
          "internalType": "uint256",
          "name": "",
          "type": "uint256"
        }
      ],
      "stateMutability": "view",
      "type": "function"
    },
    {
      "inputs": [
        {
          "internalType": "uint256",
          "name": "_id",
          "type": "uint256"
        }
      ],
      "name": "refund",
      "outputs": [],
      "stateMutability": "nonpayable",
      "type": "function"
    },
    {
      "inputs": [],
      "name": "token",
      "outputs": [
        {
          "internalType": "contract IERC20",
          "name": "",
          "type": "address"
        }
      ],
      "stateMutability": "view",
      "type": "function"
    },
    {
      "inputs": [
        {
          "internalType": "uint256",
          "name": "_id",
          "type": "uint256"
        },
        {
          "internalType": "uint256",
          "name": "_amount",
          "type": "uint256"
        }
      ],
      "name": "unpledge",
      "outputs": [],
      "stateMutability": "nonpayable",
      "type": "function"
    }
  ],
  "bytecode": "0x60a06040523480156200001157600080fd5b5060405162001e5038038062001e508339818101604052810190620000379190620000dc565b8073ffffffffffffffffffffffffffffffffffffffff1660808173ffffffffffffffffffffffffffffffffffffffff1681525050506200010e565b600080fd5b600073ffffffffffffffffffffffffffffffffffffffff82169050919050565b6000620000a48262000077565b9050919050565b620000b68162000097565b8114620000c257600080fd5b50565b600081519050620000d681620000ab565b92915050565b600060208284031215620000f557620000f462000072565b5b60006200010584828501620000c5565b91505092915050565b608051611d0a620001466000396000818161054601528181610a9e01528181610f200152818161104701526111be0152611d0a6000f3fe608060405234801561001057600080fd5b50600436106100a95760003560e01c8063379607f511610071578063379607f51461016957806340e58ee514610185578063711853ab146101a1578063aa4fb63a146101bd578063fc0c546a146101ed578063fde327be1461020b576100a9565b806306661abd146100ae578063141961bc146100cc5780631e01043914610101578063278ecde1146101315780632c63f1461461014d575b600080fd5b6100b6610227565b6040516100c391906112d9565b60405180910390f35b6100e660048036038101906100e19190611325565b61022d565b6040516100f8969594939291906113cd565b60405180910390f35b61011b60048036038101906101169190611325565b6102b6565b60405161012891906112d9565b60405180910390f35b61014b60048036038101906101469190611325565b610310565b005b6101676004803603810190610162919061145a565b610647565b005b610183600480360381019061017e9190611325565b6108dd565b005b61019f600480360381019061019a9190611325565b610bad565b005b6101bb60048036038101906101b691906114ad565b610e28565b005b6101d760048036038101906101d29190611519565b611020565b6040516101e491906112d9565b60405180910390f35b6101f5611045565b60405161020291906115b8565b60405180910390f35b610225600480360381019061022091906114ad565b611069565b005b60005481565b60016020528060005260406000206000915090508060000160009054906101000a900473ffffffffffffffffffffffffffffffffffffffff16908060010154908060020154908060030160009054906101000a900463ffffffff16908060030160049054906101000a900463ffffffff16908060030160089054906101000a900460ff16905086565b60006002600083815260200190815260200160002060003373ffffffffffffffffffffffffffffffffffffffff1673ffffffffffffffffffffffffffffffffffffffff168152602001908152602001600020549050919050565b6000600160008381526020019081526020016000206040518060c00160405290816000820160009054906101000a900473ffffffffffffffffffffffffffffffffffffffff1673ffffffffffffffffffffffffffffffffffffffff1673ffffffffffffffffffffffffffffffffffffffff16815260200160018201548152602001600282015481526020016003820160009054906101000a900463ffffffff1663ffffffff1663ffffffff1681526020016003820160049054906101000a900463ffffffff1663ffffffff1663ffffffff1681526020016003820160089054906101000a900460ff1615151515815250509050806080015163ffffffff16421161044f576040517f08c379a000000000000000000000000000000000000000000000000000000000815260040161044690611630565b60405180910390fd5b8060200151816040015110610499576040517f08c379a00000000000000000000000000000000000000000000000000000000081526004016104909061169c565b60405180910390fd5b60006002600084815260200190815260200160002060003373ffffffffffffffffffffffffffffffffffffffff1673ffffffffffffffffffffffffffffffffffffffff16815260200190815260200160002054905060006002600085815260200190815260200160002060003373ffffffffffffffffffffffffffffffffffffffff1673ffffffffffffffffffffffffffffffffffffffff168152602001908152602001600020819055507f000000000000000000000000000000000000000000000000000000000000000073ffffffffffffffffffffffffffffffffffffffff1663a9059cbb33836040518363ffffffff1660e01b815260040161059f9291906116bc565b602060405180830381600087803b1580156105b957600080fd5b505af11580156105cd573d6000803e3d6000fd5b505050506040513d601f19601f820116820180604052508101906105f19190611711565b503373ffffffffffffffffffffffffffffffffffffffff167f21e12a7cad0da5928167e1084ea4d5fdf8d9af66657a2543a9ac76a0ca081477848360405161063a92919061173e565b60405180910390a2505050565b428263ffffffff161015610690576040517f08c379a0000000000000000000000000000000000000000000000000000000008152600401610687906117b3565b60405180910390fd5b8163ffffffff168163ffffffff1610156106df576040517f08c379a00000000000000000000000000000000000000000000000000000000081526004016106d69061181f565b60405180910390fd5b6276a700426106ee919061186e565b8163ffffffff161115610736576040517f08c379a000000000000000000000000000000000000000000000000000000000815260040161072d90611910565b60405180910390fd5b6001600080828254610748919061186e565b925050819055506040518060c001604052803373ffffffffffffffffffffffffffffffffffffffff168152602001848152602001600081526020018363ffffffff1681526020018263ffffffff16815260200160001515815250600160008054815260200190815260200160002060008201518160000160006101000a81548173ffffffffffffffffffffffffffffffffffffffff021916908373ffffffffffffffffffffffffffffffffffffffff160217905550602082015181600101556040820151816002015560608201518160030160006101000a81548163ffffffff021916908363ffffffff16021790555060808201518160030160046101000a81548163ffffffff021916908363ffffffff16021790555060a08201518160030160086101000a81548160ff0219169083151502179055509050503373ffffffffffffffffffffffffffffffffffffffff167f0601cd0d650b473037e838a2696d41e654433d065b3f56b28d1d3302e44a304f6000548585856040516108d09493929190611930565b60405180910390a2505050565b60006001600083815260200190815260200160002090503373ffffffffffffffffffffffffffffffffffffffff168160000160009054906101000a900473ffffffffffffffffffffffffffffffffffffffff1673ffffffffffffffffffffffffffffffffffffffff1614610986576040517f08c379a000000000000000000000000000000000000000000000000000000000815260040161097d906119c1565b60405180910390fd5b8060030160049054906101000a900463ffffffff1663ffffffff1642116109e2576040517f08c379a00000000000000000000000000000000000000000000000000000000081526004016109d990611630565b60405180910390fd5b806001015481600201541015610a2d576040517f08c379a0000000000000000000000000000000000000000000000000000000008152600401610a2490611a2d565b60405180910390fd5b8060030160089054906101000a900460ff1615610a7f576040517f08c379a0000000000000000000000000000000000000000000000000000000008152600401610a7690611a99565b60405180910390fd5b60018160030160086101000a81548160ff0219169083151502179055507f000000000000000000000000000000000000000000000000000000000000000073ffffffffffffffffffffffffffffffffffffffff1663a9059cbb8260000160009054906101000a900473ffffffffffffffffffffffffffffffffffffffff1683600201546040518363ffffffff1660e01b8152600401610b1f9291906116bc565b602060405180830381600087803b158015610b3957600080fd5b505af1158015610b4d573d6000803e3d6000fd5b505050506040513d601f19601f82011682018060405250810190610b719190611711565b507f7bb2b3c10797baccb6f8c4791f1edd6ca2f0d028ee0eda64b01a9a57e3a653f782604051610ba191906112d9565b60405180910390a15050565b6000600160008381526020019081526020016000206040518060c00160405290816000820160009054906101000a900473ffffffffffffffffffffffffffffffffffffffff1673ffffffffffffffffffffffffffffffffffffffff1673ffffffffffffffffffffffffffffffffffffffff16815260200160018201548152602001600282015481526020016003820160009054906101000a900463ffffffff1663ffffffff1663ffffffff1681526020016003820160049054906101000a900463ffffffff1663ffffffff1663ffffffff1681526020016003820160089054906101000a900460ff16151515158152505090503373ffffffffffffffffffffffffffffffffffffffff16816000015173ffffffffffffffffffffffffffffffffffffffff1614610d12576040517f08c379a0000000000000000000000000000000000000000000000000000000008152600401610d09906119c1565b60405180910390fd5b806060015163ffffffff164210610d5e576040517f08c379a0000000000000000000000000000000000000000000000000000000008152600401610d5590611b05565b60405180910390fd5b60016000838152602001908152602001600020600080820160006101000a81549073ffffffffffffffffffffffffffffffffffffffff0219169055600182016000905560028201600090556003820160006101000a81549063ffffffff02191690556003820160046101000a81549063ffffffff02191690556003820160086101000a81549060ff021916905550507f8bf30e7ff26833413be5f69e1d373744864d600b664204b4a2f9844a8eedb9ed82604051610e1c91906112d9565b60405180910390a15050565b60006001600084815260200190815260200160002090508060030160049054906101000a900463ffffffff1663ffffffff16421115610e9c576040517f08c379a0000000000000000000000000000000000000000000000000000000008152600401610e9390611b71565b60405180910390fd5b81816002016000828254610eb09190611b91565b92505081905550816002600085815260200190815260200160002060003373ffffffffffffffffffffffffffffffffffffffff1673ffffffffffffffffffffffffffffffffffffffff1681526020019081526020016000206000828254610f179190611b91565b925050819055507f000000000000000000000000000000000000000000000000000000000000000073ffffffffffffffffffffffffffffffffffffffff1663a9059cbb33846040518363ffffffff1660e01b8152600401610f799291906116bc565b602060405180830381600087803b158015610f9357600080fd5b505af1158015610fa7573d6000803e3d6000fd5b505050506040513d601f19601f82011682018060405250810190610fcb9190611711565b503373ffffffffffffffffffffffffffffffffffffffff16837f2eeeab891b26a214d1b25749f88a406bdea852bd8c9bfda977e0ef8114c180ba8460405161101391906112d9565b60405180910390a3505050565b6002602052816000526040600020602052806000526040600020600091509150505481565b7f000000000000000000000000000000000000000000000000000000000000000081565b60006001600084815260200190815260200160002090508060030160009054906101000a900463ffffffff1663ffffffff164210156110dd576040517f08c379a00000000000000000000000000000000000000000000000000000000081526004016110d490611c11565b60405180910390fd5b8060030160049054906101000a900463ffffffff1663ffffffff1642111561113a576040517f08c379a000000000000000000000000000000000000000000000000000000000815260040161113190611c7d565b60405180910390fd5b8181600201600082825461114e919061186e565b92505081905550816002600085815260200190815260200160002060003373ffffffffffffffffffffffffffffffffffffffff1673ffffffffffffffffffffffffffffffffffffffff16815260200190815260200160002060008282546111b5919061186e565b925050819055507f000000000000000000000000000000000000000000000000000000000000000073ffffffffffffffffffffffffffffffffffffffff166323b872dd3330856040518463ffffffff1660e01b815260040161121993929190611c9d565b602060405180830381600087803b15801561123357600080fd5b505af1158015611247573d6000803e3d6000fd5b505050506040513d601f19601f8201168201806040525081019061126b9190611711565b503373ffffffffffffffffffffffffffffffffffffffff16837f06bdb975df800a73232998e71ed585d536222f1dfeaa622d7f62a23ada686c82846040516112b391906112d9565b60405180910390a3505050565b6000819050919050565b6112d3816112c0565b82525050565b60006020820190506112ee60008301846112ca565b92915050565b600080fd5b611302816112c0565b811461130d57600080fd5b50565b60008135905061131f816112f9565b92915050565b60006020828403121561133b5761133a6112f4565b5b600061134984828501611310565b91505092915050565b600073ffffffffffffffffffffffffffffffffffffffff82169050919050565b600061137d82611352565b9050919050565b61138d81611372565b82525050565b600063ffffffff82169050919050565b6113ac81611393565b82525050565b60008115159050919050565b6113c7816113b2565b82525050565b600060c0820190506113e26000830189611384565b6113ef60208301886112ca565b6113fc60408301876112ca565b61140960608301866113a3565b61141660808301856113a3565b61142360a08301846113be565b979650505050505050565b61143781611393565b811461144257600080fd5b50565b6000813590506114548161142e565b92915050565b600080600060608486031215611473576114726112f4565b5b600061148186828701611310565b935050602061149286828701611445565b92505060406114a386828701611445565b9150509250925092565b600080604083850312156114c4576114c36112f4565b5b60006114d285828601611310565b92505060206114e385828601611310565b9150509250929050565b6114f681611372565b811461150157600080fd5b50565b600081359050611513816114ed565b92915050565b600080604083850312156115305761152f6112f4565b5b600061153e85828601611310565b925050602061154f85828601611504565b9150509250929050565b6000819050919050565b600061157e61157961157484611352565b611559565b611352565b9050919050565b600061159082611563565b9050919050565b60006115a282611585565b9050919050565b6115b281611597565b82525050565b60006020820190506115cd60008301846115a9565b92915050565b600082825260208201905092915050565b7f6e6f7420656e6465640000000000000000000000000000000000000000000000600082015250565b600061161a6009836115d3565b9150611625826115e4565b602082019050919050565b600060208201905081810360008301526116498161160d565b9050919050565b7f706c6564676564203e3d20676f616c0000000000000000000000000000000000600082015250565b6000611686600f836115d3565b915061169182611650565b602082019050919050565b600060208201905081810360008301526116b581611679565b9050919050565b60006040820190506116d16000830185611384565b6116de60208301846112ca565b9392505050565b6116ee816113b2565b81146116f957600080fd5b50565b60008151905061170b816116e5565b92915050565b600060208284031215611727576117266112f4565b5b6000611735848285016116fc565b91505092915050565b600060408201905061175360008301856112ca565b61176060208301846112ca565b9392505050565b7f7374617274206174203c206e6f77000000000000000000000000000000000000600082015250565b600061179d600e836115d3565b91506117a882611767565b602082019050919050565b600060208201905081810360008301526117cc81611790565b9050919050565b7f656e64206174203c207374617274206174000000000000000000000000000000600082015250565b60006118096011836115d3565b9150611814826117d3565b602082019050919050565b60006020820190508181036000830152611838816117fc565b9050919050565b7f4e487b7100000000000000000000000000000000000000000000000000000000600052601160045260246000fd5b6000611879826112c0565b9150611884836112c0565b9250827fffffffffffffffffffffffffffffffffffffffffffffffffffffffffffffffff038211156118b9576118b861183f565b5b828201905092915050565b7f656e64206174203e206d6178206475726174696f6e0000000000000000000000600082015250565b60006118fa6015836115d3565b9150611905826118c4565b602082019050919050565b60006020820190508181036000830152611929816118ed565b9050919050565b600060808201905061194560008301876112ca565b61195260208301866112ca565b61195f60408301856113a3565b61196c60608301846113a3565b95945050505050565b7f6e6f742063726561746f72000000000000000000000000000000000000000000600082015250565b60006119ab600b836115d3565b91506119b682611975565b602082019050919050565b600060208201905081810360008301526119da8161199e565b9050919050565b7f706c6564676564203c20676f616c000000000000000000000000000000000000600082015250565b6000611a17600e836115d3565b9150611a22826119e1565b602082019050919050565b60006020820190508181036000830152611a4681611a0a565b9050919050565b7f636c61696d656400000000000000000000000000000000000000000000000000600082015250565b6000611a836007836115d3565b9150611a8e82611a4d565b602082019050919050565b60006020820190508181036000830152611ab281611a76565b9050919050565b7f7374617274656400000000000000000000000000000000000000000000000000600082015250565b6000611aef6007836115d3565b9150611afa82611ab9565b602082019050919050565b60006020820190508181036000830152611b1e81611ae2565b9050919050565b7f456e646564000000000000000000000000000000000000000000000000000000600082015250565b6000611b5b6005836115d3565b9150611b6682611b25565b602082019050919050565b60006020820190508181036000830152611b8a81611b4e565b9050919050565b6000611b9c826112c0565b9150611ba7836112c0565b925082821015611bba57611bb961183f565b5b828203905092915050565b7f6e6f742073746172746564000000000000000000000000000000000000000000600082015250565b6000611bfb600b836115d3565b9150611c0682611bc5565b602082019050919050565b60006020820190508181036000830152611c2a81611bee565b9050919050565b7f656e646564000000000000000000000000000000000000000000000000000000600082015250565b6000611c676005836115d3565b9150611c7282611c31565b602082019050919050565b60006020820190508181036000830152611c9681611c5a565b9050919050565b6000606082019050611cb26000830186611384565b611cbf6020830185611384565b611ccc60408301846112ca565b94935050505056fea2646970667358221220b269cd3a50a695269119f63bb7fcebe2f0cac819c6f31f99b99dd58aa2eb93ec64736f6c63430008090033",
  "linkReferences": {},
  "deployedLinkReferences": {}
}