{
  "_format": "hh-sol-artifact-1",
  "contractName": "CrowdFund",
  "sourceName": "contracts/crowdfund.sol",
  "abi": [
    {
      "inputs": [
        {
          "internalType": "address",
          "name": "_token",
          "type": "address"
        }
      ],
      "stateMutability": "nonpayable",
      "type": "constructor"
    },
    {
      "anonymous": false,
      "inputs": [
        {
          "indexed": false,
          "internalType": "uint256",
          "name": "id",
          "type": "uint256"
        }
      ],
      "name": "Cancel",
      "type": "event"
    },
    {
      "anonymous": false,
      "inputs": [
        {
          "indexed": false,
          "internalType": "uint256",
          "name": "id",
          "type": "uint256"
        }
      ],
      "name": "Claim",
      "type": "event"
    },
    {
      "anonymous": false,
      "inputs": [
        {
          "indexed": false,
          "internalType": "uint256",
          "name": "id",
          "type": "uint256"
        },
        {
          "indexed": true,
          "internalType": "address",
          "name": "creator",
          "type": "address"
        },
        {
          "indexed": false,
          "internalType": "uint256",
          "name": "goal",
          "type": "uint256"
        },
        {
          "indexed": false,
          "internalType": "uint32",
          "name": "startAt",
          "type": "uint32"
        },
        {
          "indexed": false,
          "internalType": "uint32",
          "name": "endAt",
          "type": "uint32"
        }
      ],
      "name": "Launch",
      "type": "event"
    },
    {
      "anonymous": false,
      "inputs": [
        {
          "indexed": true,
          "internalType": "uint256",
          "name": "id",
          "type": "uint256"
        },
        {
          "indexed": true,
          "internalType": "address",
          "name": "caller",
          "type": "address"
        },
        {
          "indexed": false,
          "internalType": "uint256",
          "name": "amount",
          "type": "uint256"
        }
      ],
      "name": "Pledge",
      "type": "event"
    },
    {
      "anonymous": false,
      "inputs": [
        {
          "indexed": false,
          "internalType": "uint256",
          "name": "id",
          "type": "uint256"
        },
        {
          "indexed": true,
          "internalType": "address",
          "name": "caller",
          "type": "address"
        },
        {
          "indexed": false,
          "internalType": "uint256",
          "name": "amount",
          "type": "uint256"
        }
      ],
      "name": "Refund",
      "type": "event"
    },
    {
      "anonymous": false,
      "inputs": [
        {
          "indexed": true,
          "internalType": "uint256",
          "name": "id",
          "type": "uint256"
        },
        {
          "indexed": true,
          "internalType": "address",
          "name": "caller",
          "type": "address"
        },
        {
          "indexed": false,
          "internalType": "uint256",
          "name": "amount",
          "type": "uint256"
        }
      ],
      "name": "Unpledge",
      "type": "event"
    },
    {
      "inputs": [
        {
          "internalType": "uint256",
          "name": "",
          "type": "uint256"
        }
      ],
      "name": "campaigns",
      "outputs": [
        {
          "internalType": "uint256",
          "name": "id",
          "type": "uint256"
        },
        {
          "internalType": "address",
          "name": "creator",
          "type": "address"
        },
        {
          "internalType": "uint256",
          "name": "goal",
          "type": "uint256"
        },
        {
          "internalType": "uint256",
          "name": "pledged",
          "type": "uint256"
        },
        {
          "internalType": "uint32",
          "name": "startAt",
          "type": "uint32"
        },
        {
          "internalType": "uint32",
          "name": "endAt",
          "type": "uint32"
        },
        {
          "internalType": "bool",
          "name": "claimed",
          "type": "bool"
        }
      ],
      "stateMutability": "view",
      "type": "function"
    },
    {
      "inputs": [
        {
          "internalType": "uint256",
          "name": "_id",
          "type": "uint256"
        }
      ],
      "name": "cancel",
      "outputs": [],
      "stateMutability": "nonpayable",
      "type": "function"
    },
    {
      "inputs": [
        {
          "internalType": "uint256",
          "name": "_id",
          "type": "uint256"
        }
      ],
      "name": "claim",
      "outputs": [],
      "stateMutability": "nonpayable",
      "type": "function"
    },
    {
      "inputs": [],
      "name": "count",
      "outputs": [
        {
          "internalType": "uint256",
          "name": "",
          "type": "uint256"
        }
      ],
      "stateMutability": "view",
      "type": "function"
    },
    {
      "inputs": [
        {
          "internalType": "uint256",
          "name": "_id",
          "type": "uint256"
        }
      ],
      "name": "getBalance",
      "outputs": [
        {
          "internalType": "uint256",
          "name": "",
          "type": "uint256"
        }
      ],
      "stateMutability": "view",
      "type": "function"
    },
    {
      "inputs": [
        {
          "internalType": "uint256",
          "name": "_goal",
          "type": "uint256"
        },
        {
          "internalType": "uint32",
          "name": "_startAt",
          "type": "uint32"
        },
        {
          "internalType": "uint32",
          "name": "_endAt",
          "type": "uint32"
        }
      ],
      "name": "launch",
      "outputs": [],
      "stateMutability": "nonpayable",
      "type": "function"
    },
    {
      "inputs": [
        {
          "internalType": "uint256",
          "name": "_id",
          "type": "uint256"
        },
        {
          "internalType": "uint256",
          "name": "_amount",
          "type": "uint256"
        }
      ],
      "name": "pledge",
      "outputs": [],
      "stateMutability": "nonpayable",
      "type": "function"
    },
    {
      "inputs": [
        {
          "internalType": "uint256",
          "name": "",
          "type": "uint256"
        },
        {
          "internalType": "address",
          "name": "",
          "type": "address"
        }
      ],
      "name": "pledgedAmount",
      "outputs": [
        {
          "internalType": "uint256",
          "name": "",
          "type": "uint256"
        }
      ],
      "stateMutability": "view",
      "type": "function"
    },
    {
      "inputs": [
        {
          "internalType": "uint256",
          "name": "_id",
          "type": "uint256"
        }
      ],
      "name": "refund",
      "outputs": [],
      "stateMutability": "nonpayable",
      "type": "function"
    },
    {
      "inputs": [],
      "name": "token",
      "outputs": [
        {
          "internalType": "contract IERC20",
          "name": "",
          "type": "address"
        }
      ],
      "stateMutability": "view",
      "type": "function"
    },
    {
      "inputs": [
        {
          "internalType": "uint256",
          "name": "_id",
          "type": "uint256"
        },
        {
          "internalType": "uint256",
          "name": "_amount",
          "type": "uint256"
        }
      ],
      "name": "unpledge",
      "outputs": [],
      "stateMutability": "nonpayable",
      "type": "function"
    }
  ],
  "bytecode": "0x60a06040523480156200001157600080fd5b5060405162001e9338038062001e938339818101604052810190620000379190620000dc565b8073ffffffffffffffffffffffffffffffffffffffff1660808173ffffffffffffffffffffffffffffffffffffffff1681525050506200010e565b600080fd5b600073ffffffffffffffffffffffffffffffffffffffff82169050919050565b6000620000a48262000077565b9050919050565b620000b68162000097565b8114620000c257600080fd5b50565b600081519050620000d681620000ab565b92915050565b600060208284031215620000f557620000f462000072565b5b60006200010584828501620000c5565b91505092915050565b608051611d4d620001466000396000818161055701528181610ac101528181610f550152818161107c01526111f30152611d4d6000f3fe608060405234801561001057600080fd5b50600436106100a95760003560e01c8063379607f511610071578063379607f51461016a57806340e58ee514610186578063711853ab146101a2578063aa4fb63a146101be578063fc0c546a146101ee578063fde327be1461020c576100a9565b806306661abd146100ae578063141961bc146100cc5780631e01043914610102578063278ecde1146101325780632c63f1461461014e575b600080fd5b6100b6610228565b6040516100c3919061130e565b60405180910390f35b6100e660048036038101906100e1919061135a565b61022e565b6040516100f99796959493929190611402565b60405180910390f35b61011c6004803603810190610117919061135a565b6102bd565b604051610129919061130e565b60405180910390f35b61014c6004803603810190610147919061135a565b610317565b005b6101686004803603810190610163919061149d565b610658565b005b610184600480360381019061017f919061135a565b610900565b005b6101a0600480360381019061019b919061135a565b610bd0565b005b6101bc60048036038101906101b791906114f0565b610e5d565b005b6101d860048036038101906101d3919061155c565b611055565b6040516101e5919061130e565b60405180910390f35b6101f661107a565b60405161020391906115fb565b60405180910390f35b610226600480360381019061022191906114f0565b61109e565b005b60005481565b60016020528060005260406000206000915090508060000154908060010160009054906101000a900473ffffffffffffffffffffffffffffffffffffffff16908060020154908060030154908060040160009054906101000a900463ffffffff16908060040160049054906101000a900463ffffffff16908060040160089054906101000a900460ff16905087565b60006002600083815260200190815260200160002060003373ffffffffffffffffffffffffffffffffffffffff1673ffffffffffffffffffffffffffffffffffffffff168152602001908152602001600020549050919050565b6000600160008381526020019081526020016000206040518060e0016040529081600082015481526020016001820160009054906101000a900473ffffffffffffffffffffffffffffffffffffffff1673ffffffffffffffffffffffffffffffffffffffff1673ffffffffffffffffffffffffffffffffffffffff16815260200160028201548152602001600382015481526020016004820160009054906101000a900463ffffffff1663ffffffff1663ffffffff1681526020016004820160049054906101000a900463ffffffff1663ffffffff1663ffffffff1681526020016004820160089054906101000a900460ff16151515158152505090508060a0015163ffffffff164211610460576040517f08c379a000000000000000000000000000000000000000000000000000000000815260040161045790611673565b60405180910390fd5b80604001518160600151106104aa576040517f08c379a00000000000000000000000000000000000000000000000000000000081526004016104a1906116df565b60405180910390fd5b60006002600084815260200190815260200160002060003373ffffffffffffffffffffffffffffffffffffffff1673ffffffffffffffffffffffffffffffffffffffff16815260200190815260200160002054905060006002600085815260200190815260200160002060003373ffffffffffffffffffffffffffffffffffffffff1673ffffffffffffffffffffffffffffffffffffffff168152602001908152602001600020819055507f000000000000000000000000000000000000000000000000000000000000000073ffffffffffffffffffffffffffffffffffffffff1663a9059cbb33836040518363ffffffff1660e01b81526004016105b09291906116ff565b602060405180830381600087803b1580156105ca57600080fd5b505af11580156105de573d6000803e3d6000fd5b505050506040513d601f19601f820116820180604052508101906106029190611754565b503373ffffffffffffffffffffffffffffffffffffffff167f21e12a7cad0da5928167e1084ea4d5fdf8d9af66657a2543a9ac76a0ca081477848360405161064b929190611781565b60405180910390a2505050565b428263ffffffff1610156106a1576040517f08c379a0000000000000000000000000000000000000000000000000000000008152600401610698906117f6565b60405180910390fd5b8163ffffffff168163ffffffff1610156106f0576040517f08c379a00000000000000000000000000000000000000000000000000000000081526004016106e790611862565b60405180910390fd5b6276a700426106ff91906118b1565b8163ffffffff161115610747576040517f08c379a000000000000000000000000000000000000000000000000000000000815260040161073e90611953565b60405180910390fd5b600160008082825461075991906118b1565b925050819055506040518060e0016040528060005481526020013373ffffffffffffffffffffffffffffffffffffffff168152602001848152602001600081526020018363ffffffff1681526020018263ffffffff1681526020016000151581525060016000805481526020019081526020016000206000820151816000015560208201518160010160006101000a81548173ffffffffffffffffffffffffffffffffffffffff021916908373ffffffffffffffffffffffffffffffffffffffff160217905550604082015181600201556060820151816003015560808201518160040160006101000a81548163ffffffff021916908363ffffffff16021790555060a08201518160040160046101000a81548163ffffffff021916908363ffffffff16021790555060c08201518160040160086101000a81548160ff0219169083151502179055509050503373ffffffffffffffffffffffffffffffffffffffff167f0601cd0d650b473037e838a2696d41e654433d065b3f56b28d1d3302e44a304f6000548585856040516108f39493929190611973565b60405180910390a2505050565b60006001600083815260200190815260200160002090503373ffffffffffffffffffffffffffffffffffffffff168160010160009054906101000a900473ffffffffffffffffffffffffffffffffffffffff1673ffffffffffffffffffffffffffffffffffffffff16146109a9576040517f08c379a00000000000000000000000000000000000000000000000000000000081526004016109a090611a04565b60405180910390fd5b8060040160049054906101000a900463ffffffff1663ffffffff164211610a05576040517f08c379a00000000000000000000000000000000000000000000000000000000081526004016109fc90611673565b60405180910390fd5b806002015481600301541015610a50576040517f08c379a0000000000000000000000000000000000000000000000000000000008152600401610a4790611a70565b60405180910390fd5b8060040160089054906101000a900460ff1615610aa2576040517f08c379a0000000000000000000000000000000000000000000000000000000008152600401610a9990611adc565b60405180910390fd5b60018160040160086101000a81548160ff0219169083151502179055507f000000000000000000000000000000000000000000000000000000000000000073ffffffffffffffffffffffffffffffffffffffff1663a9059cbb8260010160009054906101000a900473ffffffffffffffffffffffffffffffffffffffff1683600301546040518363ffffffff1660e01b8152600401610b429291906116ff565b602060405180830381600087803b158015610b5c57600080fd5b505af1158015610b70573d6000803e3d6000fd5b505050506040513d601f19601f82011682018060405250810190610b949190611754565b507f7bb2b3c10797baccb6f8c4791f1edd6ca2f0d028ee0eda64b01a9a57e3a653f782604051610bc4919061130e565b60405180910390a15050565b6000600160008381526020019081526020016000206040518060e0016040529081600082015481526020016001820160009054906101000a900473ffffffffffffffffffffffffffffffffffffffff1673ffffffffffffffffffffffffffffffffffffffff1673ffffffffffffffffffffffffffffffffffffffff16815260200160028201548152602001600382015481526020016004820160009054906101000a900463ffffffff1663ffffffff1663ffffffff1681526020016004820160049054906101000a900463ffffffff1663ffffffff1663ffffffff1681526020016004820160089054906101000a900460ff16151515158152505090503373ffffffffffffffffffffffffffffffffffffffff16816020015173ffffffffffffffffffffffffffffffffffffffff1614610d3f576040517f08c379a0000000000000000000000000000000000000000000000000000000008152600401610d3690611a04565b60405180910390fd5b806080015163ffffffff164210610d8b576040517f08c379a0000000000000000000000000000000000000000000000000000000008152600401610d8290611b48565b60405180910390fd5b600160008381526020019081526020016000206000808201600090556001820160006101000a81549073ffffffffffffffffffffffffffffffffffffffff0219169055600282016000905560038201600090556004820160006101000a81549063ffffffff02191690556004820160046101000a81549063ffffffff02191690556004820160086101000a81549060ff021916905550507f8bf30e7ff26833413be5f69e1d373744864d600b664204b4a2f9844a8eedb9ed82604051610e51919061130e565b60405180910390a15050565b60006001600084815260200190815260200160002090508060040160049054906101000a900463ffffffff1663ffffffff16421115610ed1576040517f08c379a0000000000000000000000000000000000000000000000000000000008152600401610ec890611bb4565b60405180910390fd5b81816003016000828254610ee59190611bd4565b92505081905550816002600085815260200190815260200160002060003373ffffffffffffffffffffffffffffffffffffffff1673ffffffffffffffffffffffffffffffffffffffff1681526020019081526020016000206000828254610f4c9190611bd4565b925050819055507f000000000000000000000000000000000000000000000000000000000000000073ffffffffffffffffffffffffffffffffffffffff1663a9059cbb33846040518363ffffffff1660e01b8152600401610fae9291906116ff565b602060405180830381600087803b158015610fc857600080fd5b505af1158015610fdc573d6000803e3d6000fd5b505050506040513d601f19601f820116820180604052508101906110009190611754565b503373ffffffffffffffffffffffffffffffffffffffff16837f2eeeab891b26a214d1b25749f88a406bdea852bd8c9bfda977e0ef8114c180ba84604051611048919061130e565b60405180910390a3505050565b6002602052816000526040600020602052806000526040600020600091509150505481565b7f000000000000000000000000000000000000000000000000000000000000000081565b60006001600084815260200190815260200160002090508060040160009054906101000a900463ffffffff1663ffffffff16421015611112576040517f08c379a000000000000000000000000000000000000000000000000000000000815260040161110990611c54565b60405180910390fd5b8060040160049054906101000a900463ffffffff1663ffffffff1642111561116f576040517f08c379a000000000000000000000000000000000000000000000000000000000815260040161116690611cc0565b60405180910390fd5b8181600301600082825461118391906118b1565b92505081905550816002600085815260200190815260200160002060003373ffffffffffffffffffffffffffffffffffffffff1673ffffffffffffffffffffffffffffffffffffffff16815260200190815260200160002060008282546111ea91906118b1565b925050819055507f000000000000000000000000000000000000000000000000000000000000000073ffffffffffffffffffffffffffffffffffffffff166323b872dd3330856040518463ffffffff1660e01b815260040161124e93929190611ce0565b602060405180830381600087803b15801561126857600080fd5b505af115801561127c573d6000803e3d6000fd5b505050506040513d601f19601f820116820180604052508101906112a09190611754565b503373ffffffffffffffffffffffffffffffffffffffff16837f06bdb975df800a73232998e71ed585d536222f1dfeaa622d7f62a23ada686c82846040516112e8919061130e565b60405180910390a3505050565b6000819050919050565b611308816112f5565b82525050565b600060208201905061132360008301846112ff565b92915050565b600080fd5b611337816112f5565b811461134257600080fd5b50565b6000813590506113548161132e565b92915050565b6000602082840312156113705761136f611329565b5b600061137e84828501611345565b91505092915050565b600073ffffffffffffffffffffffffffffffffffffffff82169050919050565b60006113b282611387565b9050919050565b6113c2816113a7565b82525050565b600063ffffffff82169050919050565b6113e1816113c8565b82525050565b60008115159050919050565b6113fc816113e7565b82525050565b600060e082019050611417600083018a6112ff565b61142460208301896113b9565b61143160408301886112ff565b61143e60608301876112ff565b61144b60808301866113d8565b61145860a08301856113d8565b61146560c08301846113f3565b98975050505050505050565b61147a816113c8565b811461148557600080fd5b50565b60008135905061149781611471565b92915050565b6000806000606084860312156114b6576114b5611329565b5b60006114c486828701611345565b93505060206114d586828701611488565b92505060406114e686828701611488565b9150509250925092565b6000806040838503121561150757611506611329565b5b600061151585828601611345565b925050602061152685828601611345565b9150509250929050565b611539816113a7565b811461154457600080fd5b50565b60008135905061155681611530565b92915050565b6000806040838503121561157357611572611329565b5b600061158185828601611345565b925050602061159285828601611547565b9150509250929050565b6000819050919050565b60006115c16115bc6115b784611387565b61159c565b611387565b9050919050565b60006115d3826115a6565b9050919050565b60006115e5826115c8565b9050919050565b6115f5816115da565b82525050565b600060208201905061161060008301846115ec565b92915050565b600082825260208201905092915050565b7f6e6f7420656e6465640000000000000000000000000000000000000000000000600082015250565b600061165d600983611616565b915061166882611627565b602082019050919050565b6000602082019050818103600083015261168c81611650565b9050919050565b7f706c6564676564203e3d20676f616c0000000000000000000000000000000000600082015250565b60006116c9600f83611616565b91506116d482611693565b602082019050919050565b600060208201905081810360008301526116f8816116bc565b9050919050565b600060408201905061171460008301856113b9565b61172160208301846112ff565b9392505050565b611731816113e7565b811461173c57600080fd5b50565b60008151905061174e81611728565b92915050565b60006020828403121561176a57611769611329565b5b60006117788482850161173f565b91505092915050565b600060408201905061179660008301856112ff565b6117a360208301846112ff565b9392505050565b7f7374617274206174203c206e6f77000000000000000000000000000000000000600082015250565b60006117e0600e83611616565b91506117eb826117aa565b602082019050919050565b6000602082019050818103600083015261180f816117d3565b9050919050565b7f656e64206174203c207374617274206174000000000000000000000000000000600082015250565b600061184c601183611616565b915061185782611816565b602082019050919050565b6000602082019050818103600083015261187b8161183f565b9050919050565b7f4e487b7100000000000000000000000000000000000000000000000000000000600052601160045260246000fd5b60006118bc826112f5565b91506118c7836112f5565b9250827fffffffffffffffffffffffffffffffffffffffffffffffffffffffffffffffff038211156118fc576118fb611882565b5b828201905092915050565b7f656e64206174203e206d6178206475726174696f6e0000000000000000000000600082015250565b600061193d601583611616565b915061194882611907565b602082019050919050565b6000602082019050818103600083015261196c81611930565b9050919050565b600060808201905061198860008301876112ff565b61199560208301866112ff565b6119a260408301856113d8565b6119af60608301846113d8565b95945050505050565b7f6e6f742063726561746f72000000000000000000000000000000000000000000600082015250565b60006119ee600b83611616565b91506119f9826119b8565b602082019050919050565b60006020820190508181036000830152611a1d816119e1565b9050919050565b7f706c6564676564203c20676f616c000000000000000000000000000000000000600082015250565b6000611a5a600e83611616565b9150611a6582611a24565b602082019050919050565b60006020820190508181036000830152611a8981611a4d565b9050919050565b7f636c61696d656400000000000000000000000000000000000000000000000000600082015250565b6000611ac6600783611616565b9150611ad182611a90565b602082019050919050565b60006020820190508181036000830152611af581611ab9565b9050919050565b7f7374617274656400000000000000000000000000000000000000000000000000600082015250565b6000611b32600783611616565b9150611b3d82611afc565b602082019050919050565b60006020820190508181036000830152611b6181611b25565b9050919050565b7f456e646564000000000000000000000000000000000000000000000000000000600082015250565b6000611b9e600583611616565b9150611ba982611b68565b602082019050919050565b60006020820190508181036000830152611bcd81611b91565b9050919050565b6000611bdf826112f5565b9150611bea836112f5565b925082821015611bfd57611bfc611882565b5b828203905092915050565b7f6e6f742073746172746564000000000000000000000000000000000000000000600082015250565b6000611c3e600b83611616565b9150611c4982611c08565b602082019050919050565b60006020820190508181036000830152611c6d81611c31565b9050919050565b7f656e646564000000000000000000000000000000000000000000000000000000600082015250565b6000611caa600583611616565b9150611cb582611c74565b602082019050919050565b60006020820190508181036000830152611cd981611c9d565b9050919050565b6000606082019050611cf560008301866113b9565b611d0260208301856113b9565b611d0f60408301846112ff565b94935050505056fea26469706673582212209eaec8525a99b044648c08e7ea9acdf0e5d4c967b3f45a07dbaea7757be1ea0f64736f6c63430008090033",
  "linkReferences": {},
  "deployedLinkReferences": {}
}